{
  "contractName": "Splitter",
  "abi": [
    {
      "constant": true,
      "inputs": [],
      "name": "carol",
      "outputs": [
        {
          "name": "",
          "type": "address"
        }
      ],
      "payable": false,
      "stateMutability": "view",
      "type": "function"
    },
    {
      "constant": true,
      "inputs": [],
      "name": "owner",
      "outputs": [
        {
          "name": "",
          "type": "address"
        }
      ],
      "payable": false,
      "stateMutability": "view",
      "type": "function"
    },
    {
      "constant": true,
      "inputs": [
        {
          "name": "",
          "type": "address"
        }
      ],
      "name": "moneyBuffer",
      "outputs": [
        {
          "name": "",
          "type": "uint256"
        }
      ],
      "payable": false,
      "stateMutability": "view",
      "type": "function"
    },
    {
      "constant": true,
      "inputs": [],
      "name": "bob",
      "outputs": [
        {
          "name": "",
          "type": "address"
        }
      ],
      "payable": false,
      "stateMutability": "view",
      "type": "function"
    },
    {
      "inputs": [
        {
          "name": "bobsAddress",
          "type": "address"
        },
        {
          "name": "carolsAddress",
          "type": "address"
        }
      ],
      "payable": false,
      "stateMutability": "nonpayable",
      "type": "constructor"
    },
    {
      "anonymous": false,
      "inputs": [
        {
          "indexed": false,
          "name": "contractAddress",
          "type": "address"
        }
      ],
      "name": "LogInit",
      "type": "event"
    },
    {
      "anonymous": false,
      "inputs": [
        {
          "indexed": false,
          "name": "splittedMoney",
          "type": "uint256"
        }
      ],
      "name": "LogSplittedMoney",
      "type": "event"
    },
    {
      "anonymous": false,
      "inputs": [
        {
          "indexed": false,
          "name": "beneficiary",
          "type": "address"
        },
        {
          "indexed": false,
          "name": "amount",
          "type": "uint256"
        }
      ],
      "name": "LogWithdraw",
      "type": "event"
    },
    {
      "anonymous": false,
      "inputs": [
        {
          "indexed": false,
          "name": "destroyer",
          "type": "address"
        }
      ],
      "name": "LogDestruction",
      "type": "event"
    },
    {
      "constant": false,
      "inputs": [],
      "name": "splitMoney",
      "outputs": [],
      "payable": true,
      "stateMutability": "payable",
      "type": "function"
    },
    {
      "constant": false,
      "inputs": [],
      "name": "withdraw",
      "outputs": [],
      "payable": false,
      "stateMutability": "nonpayable",
      "type": "function"
    },
    {
      "constant": false,
      "inputs": [],
      "name": "destroy",
      "outputs": [],
      "payable": false,
      "stateMutability": "nonpayable",
      "type": "function"
    }
  ],
  "bytecode": "0x6060604052341561000f57600080fd5b60405160408061097283398101604052808051906020019091908051906020019091905050600073ffffffffffffffffffffffffffffffffffffffff168273ffffffffffffffffffffffffffffffffffffffff161415151561007057600080fd5b600073ffffffffffffffffffffffffffffffffffffffff168173ffffffffffffffffffffffffffffffffffffffff16141515156100ac57600080fd5b816000806101000a81548173ffffffffffffffffffffffffffffffffffffffff021916908373ffffffffffffffffffffffffffffffffffffffff16021790555080600160006101000a81548173ffffffffffffffffffffffffffffffffffffffff021916908373ffffffffffffffffffffffffffffffffffffffff16021790555033600260006101000a81548173ffffffffffffffffffffffffffffffffffffffff021916908373ffffffffffffffffffffffffffffffffffffffff1602179055507f70a65a7c8565da4586b024094d2479522c9a4621bb8bc48691a730fe527dc40130604051808273ffffffffffffffffffffffffffffffffffffffff1673ffffffffffffffffffffffffffffffffffffffff16815260200191505060405180910390a15050610790806101e26000396000f300606060405260043610610083576000357c0100000000000000000000000000000000000000000000000000000000900463ffffffff1680631a2c8bc2146100885780633ccfd60b1461009257806383197ef0146100a75780638b930f15146100bc5780638da5cb5b14610111578063a5a59ff714610166578063c09cec77146101b3575b600080fd5b610090610208565b005b341561009d57600080fd5b6100a561039c565b005b34156100b257600080fd5b6100ba610523565b005b34156100c757600080fd5b6100cf6105fb565b604051808273ffffffffffffffffffffffffffffffffffffffff1673ffffffffffffffffffffffffffffffffffffffff16815260200191505060405180910390f35b341561011c57600080fd5b610124610621565b604051808273ffffffffffffffffffffffffffffffffffffffff1673ffffffffffffffffffffffffffffffffffffffff16815260200191505060405180910390f35b341561017157600080fd5b61019d600480803573ffffffffffffffffffffffffffffffffffffffff16906020019091905050610647565b6040518082815260200191505060405180910390f35b34156101be57600080fd5b6101c661065f565b604051808273ffffffffffffffffffffffffffffffffffffffff1673ffffffffffffffffffffffffffffffffffffffff16815260200191505060405180910390f35b600260009054906101000a900473ffffffffffffffffffffffffffffffffffffffff1673ffffffffffffffffffffffffffffffffffffffff163373ffffffffffffffffffffffffffffffffffffffff1614151561026457600080fd5b3460008111151561027457600080fd5b600060023481151561028257fe5b0614156102a35761029e60023481151561029857fe5b04610684565b61032c565b600160036000600260009054906101000a900473ffffffffffffffffffffffffffffffffffffffff1673ffffffffffffffffffffffffffffffffffffffff1673ffffffffffffffffffffffffffffffffffffffff1681526020019081526020016000206000828254019250508190555061032b60026001340381151561032557fe5b04610684565b5b7f9abc3ac4ea22c7f6d651167e6422c08b432bc7803c50cf42d2662920790126fc600060023481151561035b57fe5b06146103765760026001340381151561037057fe5b04610384565b60023481151561038257fe5b045b6040518082815260200191505060405180910390a150565b6000600360003373ffffffffffffffffffffffffffffffffffffffff1673ffffffffffffffffffffffffffffffffffffffff168152602001908152602001600020546000811115156103ed57600080fd5b600360003373ffffffffffffffffffffffffffffffffffffffff1673ffffffffffffffffffffffffffffffffffffffff1681526020019081526020016000205491506000600360003373ffffffffffffffffffffffffffffffffffffffff1673ffffffffffffffffffffffffffffffffffffffff168152602001908152602001600020819055503373ffffffffffffffffffffffffffffffffffffffff166108fc839081150290604051600060405180830381858888f1935050505015156104b457600080fd5b7f4ce7033d118120e254016dccf195288400b28fc8936425acd5f17ce2df3ab7083383604051808373ffffffffffffffffffffffffffffffffffffffff1673ffffffffffffffffffffffffffffffffffffffff1681526020018281526020019250505060405180910390a15050565b600260009054906101000a900473ffffffffffffffffffffffffffffffffffffffff1673ffffffffffffffffffffffffffffffffffffffff163373ffffffffffffffffffffffffffffffffffffffff1614151561057f57600080fd5b7fa162bacaab81fb81417d1f5ed71e711a87d92cdd3527edde5fa3c83a0640d18f33604051808273ffffffffffffffffffffffffffffffffffffffff1673ffffffffffffffffffffffffffffffffffffffff16815260200191505060405180910390a13373ffffffffffffffffffffffffffffffffffffffff16ff5b600160009054906101000a900473ffffffffffffffffffffffffffffffffffffffff1681565b600260009054906101000a900473ffffffffffffffffffffffffffffffffffffffff1681565b60036020528060005260406000206000915090505481565b6000809054906101000a900473ffffffffffffffffffffffffffffffffffffffff1681565b80600360008060009054906101000a900473ffffffffffffffffffffffffffffffffffffffff1673ffffffffffffffffffffffffffffffffffffffff1673ffffffffffffffffffffffffffffffffffffffff168152602001908152602001600020600082825401925050819055508060036000600160009054906101000a900473ffffffffffffffffffffffffffffffffffffffff1673ffffffffffffffffffffffffffffffffffffffff1673ffffffffffffffffffffffffffffffffffffffff16815260200190815260200160002060008282540192505081905550505600a165627a7a723058206b07edd1125b315501f543b57b8df55c9d8bbd5c2db6e8788717fcf8f8b048f90029",
  "source": "pragma solidity ^0.4.16;\n\ncontract Splitter {\n\n    address public bob;\n    address public carol;\n    address public owner;\n    mapping(address => uint) public moneyBuffer;\n\n    event LogInit(address contractAddress);\n    event LogSplittedMoney(uint splittedMoney);\n    event LogWithdraw(address beneficiary, uint amount);\n    event LogDestruction(address destroyer);\n\n    modifier onlyOwner() {\n        require(msg.sender == owner);\n        _;\n    }\n\n    modifier onlyPositive(uint value) {\n        require(value > 0);\n        _;\n    }\n\n    function Splitter(address bobsAddress, address carolsAddress) public {\n        require(bobsAddress != address(0));\n        require(carolsAddress != address(0));\n\n        bob = bobsAddress;\n        carol = carolsAddress;\n        owner = msg.sender;\n\n        LogInit(this);\n    }\n\n    function splitMoney() public payable onlyOwner onlyPositive(msg.value) {\n        if (msg.value % 2 == 0) {\n            loadSplittedMoney(msg.value / 2);\n        } else {\n            moneyBuffer[owner] += 1;\n            loadSplittedMoney((msg.value - 1) / 2); \n        }\n\n        LogSplittedMoney(msg.value % 2 == 0 ? msg.value / 2 : (msg.value - 1) / 2);\n    }\n\n    function loadSplittedMoney(uint splittedMoney) private {\n        moneyBuffer[bob] += splittedMoney;\n        moneyBuffer[carol] += splittedMoney;\n    }\n\n    function withdraw() public onlyPositive(moneyBuffer[msg.sender]) {\n        uint amount = moneyBuffer[msg.sender];\n        moneyBuffer[msg.sender] = 0;\n        msg.sender.transfer(amount);\n\n        LogWithdraw(msg.sender, amount);\n    }\n\n    function destroy() public onlyOwner {\n        LogDestruction(msg.sender);\n        selfdestruct(msg.sender);\n    }\n}",
  "sourcePath": "/home/lyubomir/Desktop/Dapps/Splitter/contracts/Splitter.sol",
  "compiler": {
    "name": "solc",
    "version": "0.4.19+commit.c4cbbb05.Emscripten.clang"
  },
  "schemaVersion": "2.0.0",
  "updatedAt": "2018-03-17T11:53:20.305Z"
}